{
  "address": "0xaB5E7B701B605f74AaC1b749Fd50715f0DEd7Bc5",
  "abi": [
    {
      "inputs": [
        {
          "internalType": "int256",
          "name": "_price",
          "type": "int256"
        },
        {
          "internalType": "uint8",
          "name": "_decimals",
          "type": "uint8"
        }
      ],
      "stateMutability": "nonpayable",
      "type": "constructor"
    },
    {
      "inputs": [],
      "name": "decimals",
      "outputs": [
        {
          "internalType": "uint8",
          "name": "",
          "type": "uint8"
        }
      ],
      "stateMutability": "view",
      "type": "function"
    },
    {
      "inputs": [],
      "name": "description",
      "outputs": [
        {
          "internalType": "string",
          "name": "",
          "type": "string"
        }
      ],
      "stateMutability": "pure",
      "type": "function"
    },
    {
      "inputs": [
        {
          "internalType": "uint80",
          "name": "_roundId",
          "type": "uint80"
        }
      ],
      "name": "getRoundData",
      "outputs": [
        {
          "internalType": "uint80",
          "name": "roundId",
          "type": "uint80"
        },
        {
          "internalType": "int256",
          "name": "answer",
          "type": "int256"
        },
        {
          "internalType": "uint256",
          "name": "startedAt",
          "type": "uint256"
        },
        {
          "internalType": "uint256",
          "name": "updatedAt",
          "type": "uint256"
        },
        {
          "internalType": "uint80",
          "name": "answeredInRound",
          "type": "uint80"
        }
      ],
      "stateMutability": "view",
      "type": "function"
    },
    {
      "inputs": [],
      "name": "latestRoundData",
      "outputs": [
        {
          "internalType": "uint80",
          "name": "roundId",
          "type": "uint80"
        },
        {
          "internalType": "int256",
          "name": "answer",
          "type": "int256"
        },
        {
          "internalType": "uint256",
          "name": "startedAt",
          "type": "uint256"
        },
        {
          "internalType": "uint256",
          "name": "updatedAt",
          "type": "uint256"
        },
        {
          "internalType": "uint80",
          "name": "answeredInRound",
          "type": "uint80"
        }
      ],
      "stateMutability": "view",
      "type": "function"
    },
    {
      "inputs": [
        {
          "internalType": "uint8",
          "name": "_decimals",
          "type": "uint8"
        }
      ],
      "name": "setDecimals",
      "outputs": [],
      "stateMutability": "nonpayable",
      "type": "function"
    },
    {
      "inputs": [
        {
          "internalType": "int256",
          "name": "_price",
          "type": "int256"
        }
      ],
      "name": "setPrice",
      "outputs": [],
      "stateMutability": "nonpayable",
      "type": "function"
    },
    {
      "inputs": [],
      "name": "version",
      "outputs": [
        {
          "internalType": "uint256",
          "name": "",
          "type": "uint256"
        }
      ],
      "stateMutability": "pure",
      "type": "function"
    }
  ],
  "transactionHash": "0xcad2712a8e9be9a24e1b06795c8b6764f9dc75eddfba1e8b088a92eb68a11aa4",
  "args": [
    "100000000",
    18
  ],
  "numDeployments": 1,
  "solcInputHash": "cd584debea54a5db60a340640063e281",
  "bytecode": "0x608060405234801561001057600080fd5b506040516102f73803806102f783398101604081905261002f9161004d565b6000919091556001805460ff191660ff909216919091179055610081565b6000806040838503121561005f578182fd5b82519150602083015160ff81168114610076578182fd5b809150509250929050565b610267806100906000396000f3fe608060405234801561001057600080fd5b506004361061007d5760003560e01c80637a1395aa1161005b5780637a1395aa146100de5780639a6fc8f514610104578063f7a3080614610155578063feaf968c1461016857600080fd5b8063313ce5671461008257806354fd4d501461009c5780637284e416146100ab575b600080fd5b60015460405160ff90911681526020015b60405180910390f35b60405160018152602001610093565b6040805180820182526011815270135bd8dad3dc9858db19515d1a11995959607a1b6020820152905161009391906101de565b6101026100ec36600461018c565b6001805460ff191660ff92909216919091179055565b005b61011e6101123660046101b4565b60008054919281908190565b6040805169ffffffffffffffffffff968716815260208101959095528401929092526060830152909116608082015260a001610093565b610102610163366004610174565b600055565b6000805481808061011e565b600060208284031215610185578081fd5b5035919050565b60006020828403121561019d578081fd5b813560ff811681146101ad578182fd5b9392505050565b6000602082840312156101c5578081fd5b813569ffffffffffffffffffff811681146101ad578182fd5b6000602080835283518082850152825b8181101561020a578581018301518582016040015282016101ee565b8181111561021b5783604083870101525b50601f01601f191692909201604001939250505056fea2646970667358221220cbd44696f8563b2672945a76564770c6d14cb5590a4a3e0aff3e6a47e880500064736f6c63430008040033",
  "devdoc": {
    "kind": "dev",
    "methods": {},
    "version": 1
  },
  "userdoc": {
    "kind": "user",
    "methods": {},
    "version": 1
  },
  "storageLayout": {
    "storage": [
      {
        "astId": 866,
        "contract": "contracts/mock/MockChainlinkOracleFeed.sol:MockChainlinkOracleFeed",
        "label": "price",
        "offset": 0,
        "slot": "0",
        "type": "t_int256"
      },
      {
        "astId": 868,
        "contract": "contracts/mock/MockChainlinkOracleFeed.sol:MockChainlinkOracleFeed",
        "label": "numDecimals",
        "offset": 0,
        "slot": "1",
        "type": "t_uint8"
      }
    ],
    "types": {
      "t_int256": {
        "encoding": "inplace",
        "label": "int256",
        "numberOfBytes": "32"
      },
      "t_uint8": {
        "encoding": "inplace",
        "label": "uint8",
        "numberOfBytes": "1"
      }
    }
  }
}